:020000040800F2
:1000000000000520FD0400084D0500084D0500080E
:100010004D0500084D0500084D05000800000000D2
:100020000000000000000000000000004D05000876
:100030004D050008000000004D0500089902000869
:100040004D0500084D0500084D0500084D05000848
:100050004D0500084D0500084D0500084D05000838
:100060004D0500084D0500084D0500084D05000828
:100070004D0500084D0500084D0500084D05000818
:100080004D0500084D0500084D0500084D05000808
:100090004D0500084D0500084D0500084D050008F8
:1000A0004D0500084D0500084D0500084D050008E8
:1000B0004D0500084D0500084D0500084D050008D8
:1000C0004D0500084D0500084D0500084D050008C8
:1000D0004D0500084D0500084D0500084D050008B8
:1000E0004D0500084D0500084D0500084D050008A8
:1000F0004D0500084D0500084D0500084D05000898
:100100004D0500084D0500084D0500084D05000887
:100110004D0500084D0500084D0500084D05000877
:100120004D0500084D0500084D0500084D05000867
:100130004D0500084D0500084D0500084D05000857
:100140004D0500084D0500084D0500084D05000847
:100150004D0500084D0500084D0500084D05000837
:100160004D0500084D0500084D0500084D05000827
:100170004D0500084D0500084D0500080000000071
:100180004D0500084D0500084D0500084D05000807
:100190004D0500084D0500084D0500084D050008F7
:1001A0004D0500084D0500084D0500084D050008E7
:0401B0004D050008F1
:1001B4000348044B834202D0034B03B118477047F2
:1001C400080000200800002000000000054806493F
:1001D4000B1AD90F01EBA301491002D0034B03B151
:1001E40018477047080000200800002000000000A5
:1001F40010B5064C237843B9FFF7DAFF044B13B16B
:100204000448AFF300800123237010BD08000020D0
:10021400000000005005000808B5044B1BB1044958
:100224000448AFF30080BDE80840CFE700000000B9
:100234000C0000205005000870B50D4E0D4D761BC6
:10024400B61006D00024013455F8043B9847A64262
:10025400F9D1094E094D761B00F078F9B61006D095
:100264000024013455F8043B9847A642F9D170BDE7
:100274007C0500087C050008800500087C05000852
:10028400034B00221A60024B1B688342FBDB70475E
:1002940024000020024A136801331360704700BF32
:1002A40024000020024A936943F480439361704719
:1002B40000180240024A936943F0804393617047F7
:1002C40000180240F8B50746002615E0FFF7F2FFD4
:1002D4000120FFF7D5FF0134072C07DC2B782341DD
:1002E40013F0010FF2D0FFF7DDFFF1E7FFF7DAFFBC
:1002F4000120FFF7C5FF0136BD19BB5D33B1FFF720
:10030400D9FF0120FFF7BCFF0024E5E7F8BD00009A
:10031400134B5A6C42F020025A641A6B42F04002AA
:100324001A63A3F500531A6822F040521A601A683F
:1003340042F080521A601A6822F440221A601A6845
:1003440042F080521A609A6822F0405222F440220D
:100354009A609A6842F0005242F400229A60704710
:100364000038024008B500F02BF8FFF7D1FF0F4B1F
:100374001B680F4AA2FB03231B0A013BB3F1807FD6
:1003840009D20C4A53600C4BF02183F8231000234C
:10039400936007231360FFF785FF084B1868FFF786
:1003A40091FF4FF47A70FFF76BFFF6E7040000202B
:1003B400FF04EC4F10E000E000ED00E0000000203E
:1003C400364B1A6822F00F021A601A6842F00502CE
:1003D4001A601A6842F400721A601A6842F4806261
:1003E4001A601A6842F480721A602D4A136843F442
:1003F400803313602A4B1B6813F4003FFAD0284B58
:100404001A6822F0F8021A601A6842F080021A6030
:100414001A6842F001021A60214B1B6813F0020FA4
:10042400FAD01F4B59681F4A0A405A6059681E4A3D
:100434000A435A605A6822F0E0425A601A6842F04D
:1004440080721A60164B1B6813F0007FFAD0144BAD
:100454009A6822F0F0029A609A689A609A6822F484
:10046400E0529A609A6842F4A0529A609A6822F420
:1004740060429A609A6842F400429A609A6822F054
:1004840003029A609A6842F002029A60044B9B68E5
:1004940003F00C03082BF9D1704700BF003C024065
:1004A400003802400080BFFF085A40000F49D1F8CD
:1004B400883043F47003C1F888300D4B1A6842F059
:1004C40001021A60002098601A6822F0847222F4F3
:1004D40080321A60074A5A601A6822F480221A602D
:1004E400D8604FF000638B60704700BF00ED00E000
:1004F4000038024010300024DFF834D0002103E03B
:100504000C4B5B58435004310B480C4B42189A4235
:10051400F6D30B4A02E0002342F8043B094B9A420B
:10052400F9D3FFF7C3FFFFF787FEFFF71BFF704701
:1005340000000520840500080000002008000020B9
:100544000800002028000020FEE70000F8B500BFE6
:10055400F8BC08BC9E467047F8B500BFF8BC08BCA0
:040564009E467047F8
:10056800546F6E792050726964796261696C6F0AA0
:040578000D00000072
:04057C001D02000854
:04058000F501000879
:08058400680500080024F400E2
:04000005080004FDEE
:00000001FF
