:020000040800F2
:10000000000005208D080008DD080008DD08000854
:10001000DD080008DD080008DD0800080000000019
:10002000000000000000000000000000DD080008E3
:10003000DD08000800000000DD0800089902000843
:10004000DD080008DD080008DD080008DD080008FC
:10005000DD080008DD080008DD080008DD080008EC
:10006000DD080008DD080008DD080008DD080008DC
:10007000DD080008DD080008DD080008DD080008CC
:10008000DD080008DD080008DD080008DD080008BC
:10009000DD080008DD080008DD080008DD080008AC
:1000A000DD080008DD080008DD080008DD0800089C
:1000B000DD080008DD080008DD080008DD0800088C
:1000C000DD080008DD080008DD080008DD0800087C
:1000D000DD080008DD080008DD080008DD0800086C
:1000E000DD080008DD080008DD080008DD0800085C
:1000F000DD080008DD080008DD080008DD0800084C
:10010000DD080008DD080008DD080008DD0800083B
:10011000DD080008DD080008DD080008DD0800082B
:10012000DD080008DD080008DD080008DD0800081B
:10013000DD080008DD080008DD080008DD0800080B
:10014000DD080008DD080008DD080008DD080008FB
:10015000DD080008DD080008DD080008DD080008EB
:10016000DD080008DD080008DD080008DD080008DB
:10017000DD080008DD080008DD08000800000000B8
:10018000DD080008DD080008DD080008DD080008BB
:10019000DD080008DD080008DD080008DD080008AB
:1001A000DD080008DD080008DD080008DD0800089B
:0401B000DD0800085E
:1001B4000348044B834202D0034B03B118477047F2
:1001C400100000201000002000000000054806492F
:1001D4000B1AD90F01EBA301491002D0034B03B151
:1001E4001847704710000020100000200000000095
:1001F40010B5064C237843B9FFF7DAFF044B13B16B
:100204000448AFF300800123237010BD10000020C8
:1002140000000000E008000808B5044B1BB10449C5
:100224000448AFF30080BDE80840CFE700000000B9
:1002340014000020E008000870B50D4E0D4D761B2B
:10024400B61006D00024013455F8043B9847A64262
:10025400F9D1094E094D761B00F040FBB61006D0CB
:100264000024013455F8043B9847A642F9D170BDE7
:1002740098090008980900089C09000898090008D2
:10028400034B00221A60024B1B688342FBDB70475E
:100294002C000020024A136801331360704700BF2A
:1002A4002C00002000220CE008494B60074B1B681F
:1002B40013F0400FFAD005490B6823F040030B609C
:1002C4000132835C002BEFD1704700BF0014014062
:1002D400264B5A6C42F020025A641A6B42F04002D8
:1002E4001A63A3F500531A6822F040521A601A6880
:1002F40042F000521A601A6822F440221A601A6806
:1003040042F000521A609A6822F0405222F44022CD
:100314009A609A6842F0005242F400229A605A6A43
:1003240022F0706222F0F0025A625A6A42F08002AD
:100334005A625A6A42F000625A62A3F5823300227A
:100344009A609A6842F440729A609A6842F00D0288
:100354009A60DA6842F00802DA60DA6842F004026D
:10036400DA60DA6842F40052DA607047003802401A
:10037400024A936943F0080393617047000C0240FA
:10038400024A936943F4002393617047000C0240CE
:10039400024A936943F0400393617047001C024092
:1003A400024A936943F4800393617047001C02403E
:1003B400024A936943F40043936170470004024086
:1003C400024A936943F0004393617047000402407A
:1003D400D8B10246002812DB0021C2B1174880FBC5
:1003E4000230D317C3EBA003184603EB8303A2EB3D
:1003F40043033033124A535402460131EDE742427B
:100404000F4B2D2119700121E7E70E4870470C4B63
:10041400002058544B1E9A420DDA10B40849885CE7
:10042400CC5C8C54C8540132013B9A42F6DB04483C
:100434005DF8044B70470248704700BF6766666604
:10044400300000207C09000808B5FFF799FFFFF78A
:100454008FFF08BD10B50446FFF7AAFFFFF7F4FFAE
:1004640063080BD0FFF7A4FFFFF7EEFF14F0010FB2
:1004740007D0FFF79DFFFFF7E7FF10BDFFF7A0FFD1
:10048400F2E7FFF79DFFF6E738B50546092404E0D7
:10049400FFF796FFFFF7D8FF013C002C07DB25FA96
:1004A40004F313F0010FF3D0FFF782FFF2E738BD36
:1004B40038B5B0F5007F0BD20446FFF769FF022080
:1004C400FFF7C8FF2046FFF7DFFF00252C4608E0B2
:1004D400104B1868FFF7E6FE002418E06400A4B28D
:1004E40001350F2D11DCFFF74BFFFFF741FF0A4BDE
:1004F4001868FFF7C5FE094B1B6913F4804FEDD054
:100504006400A4B20134A4B2EAE7FFF749FF20462D
:1005140038BD00BF04000020000000200004024099
:10052400F0B583B002284FD0032873D0012805D03A
:100534004A4B1868FFF7B6FE03B0F0BD4848FFF712
:10054400B1FE00273CE04748FFF7ACFE013C072C16
:1005540008DD45FA04F313F0010FF4D04248FFF725
:10056400A1FEF3E74148FFF79DFE4148FFF79AFEDD
:10057400072403E03B48FFF795FE013C002C08DB11
:1005840045FA04F313F0010FF4D03748FFF78AFE5D
:10059400F3E73648FFF786FE3648FFF783FE013659
:1005A400072E09DC06EBC700FFF782FF054630483B
:1005B400FFF778FE0F24CAE72948FFF773FE0137D7
:1005C4003F2FB9DC0026EBE72548FFF76BFE00263A
:1005D4001CE004EBC600FFF76BFFC5B2C0F30720B5
:1005E400FFF7F6FEFFF75EFE2048FFF75BFE2846A6
:1005F400FFF7EEFEFFF756FE1F48FFF753FE0134E8
:10060400072CE6DD1648FFF74DFE01363F2E93DC3E
:100614000024F5E71248FFF745FE002518E004EB37
:10062400C500FFF745FF00238DF806308DF805005F
:10063400000A8DF8040001A8FFF734FE0E48FFF706
:1006440031FE0134072CEADD0548FFF72BFE0135A6
:100654003F2D3FF771AF0024F4E700BF08000020EE
:10066400800900087C090008880900088C09000832
:1006740084090008900900089409000810B500F0E6
:1006840067F8FFF725FE2C4B1B68DB082B4AA2FBFF
:1006940003239B0A013BB3F1807F09D2284A5360AC
:1006A400284BF02183F82310002393600723136061
:1006B400254B1A6B42F002021A631A6B42F00802CD
:1006C4001A631A6B42F080021A63A3F550531A6836
:1006D40022F040421A601A6842F080421A601A6896
:1006E40022F040521A6003F500631A6822F0C00237
:1006F4001A601A6842F040021A6003F580531A68BF
:1007040022F440521A601A6842F480521A600F4C64
:100714002046FFF7C7FDFFF753FEFFF731FEFFF753
:100724003FFE2046FFF7BEFD0120FFF7F9FE2046FD
:10073400FFF7B8FD002010BD0C000020B1DB9717B7
:1007440010E000E000ED00E00038024080090008FD
:10075400364B1A6822F00F021A601A6842F005023A
:100764001A601A6842F400721A601A6842F48062CD
:100774001A601A6842F480721A602D4A136843F4AE
:10078400803313602A4B1B6813F4003FFAD0284BC4
:100794001A6822F0F8021A601A6842F080021A609D
:1007A4001A6842F001021A60214B1B6813F0020F11
:1007B400FAD01F4B59681F4A0A405A6059681E4AAA
:1007C4000A435A605A6822F0E0425A601A6842F0BA
:1007D40080721A60164B1B6813F0007FFAD0144B1A
:1007E4009A6822F0F0029A609A689A609A6822F4F1
:1007F400E0529A609A6842F4A0529A609A6822F48D
:1008040060429A609A6842F400429A609A6822F0C0
:1008140003029A609A6842F002029A60044B9B6851
:1008240003F00C03082BF9D1704700BF003C0240D1
:10083400003802400080BFFF085A40000F49D1F839
:10084400883043F47003C1F888300D4B1A6842F0C5
:1008540001021A60002098601A6822F0847222F45F
:1008640080321A60074A5A601A6822F480221A6099
:10087400D8604FF000638B60704700BF00ED00E06C
:100884000038024010300024DFF834D0002103E0A7
:100894000C4B5B58435004310B480C4B42189A42A2
:1008A400F6D30B4A02E0002342F8043B094B9A4278
:1008B400F9D3FFF7C3FFFFF7BFFCFFF7DFFE704775
:1008C40000000520A00900080000002010000020FE
:1008D400100000203C000020FEE70000F8B500BF37
:1008E400F8BC08BC9E467047F8B500BFF8BC08BC0D
:0408F4009E46704765
:1008F8004552524F523A20537472696E6720676F9F
:100908006573206265796F6E64206D656D6F7279AD
:100918002073697A650A0D00000000004552524FA5
:10092800523A2041646472657373206D7573742044
:1009380076617279206265747765656E2030206112
:100948006E6420323034370A0D0000004552524F91
:10095800523A20496E76616C6964206D656D6F72DC
:1009680079206F7574707574206D6F64650A0D0059
:1009780000000000300000000A0D00003062000096
:10098800310000002000000020202000202000006E
:040998001D02000834
:04099C00F501000859
:1009A000EE02000024090008540900080024F400A5
:040000050800088D5A
:00000001FF
