:020000040800F2
:1000000000000520390D0008890D0008890D000841
:10001000890D0008890D0008890D00080000000006
:10002000000000000000000000000000890D000832
:10003000890D000800000000890D0008F104000887
:10004000890D0008890D0008890D0008890D000838
:10005000890D0008890D0008890D0008890D000828
:10006000890D0008890D0008890D0008890D000818
:10007000890D0008890D0008890D0008890D000808
:10008000890D0008890D0008890D0008890D0008F8
:10009000890D0008890D0008890D0008890D0008E8
:1000A000890D0008890D0008890D0008890D0008D8
:1000B000890D0008890D0008890D0008890D0008C8
:1000C000890D0008890D0008890D0008890D0008B8
:1000D000890D0008890D0008890D0008190600081F
:1000E000890D0008890D0008890D0008890D000898
:1000F000890D0008890D0008890D0008890D000888
:10010000890D0008890D0008890D0008890D000877
:10011000890D0008890D0008890D0008890D000867
:10012000890D0008890D0008890D0008890D000857
:10013000890D0008890D0008890D0008890D000847
:10014000890D0008890D0008890D0008890D000837
:10015000890D0008890D0008890D0008890D000827
:10016000890D0008890D0008890D0008890D000817
:10017000890D0008890D0008890D000800000000A5
:10018000890D0008890D0008890D0008890D0008F7
:10019000890D0008890D0008890D0008890D0008E7
:1001A000890D0008890D0008890D0008890D0008D7
:0401B000890D0008AD
:1001B4000348044B834202D0034B03B118477047F2
:1001C4002C0000202C0000200000000005480649F7
:1001D4000B1AD90F01EBA301491002D0034B03B151
:1001E400184770472C0000202C000020000000005D
:1001F40010B5064C237843B9FFF7DAFF044B13B16B
:100204000448AFF300800123237010BD2C000020AC
:10021400000000008C0D000808B5044B1BB1044914
:100224000448AFF30080BDE80840CFE700000000B9
:10023400300000208C0D000870B50D4E0D4D761B5E
:10024400B61006D00024013455F8043B9847A64262
:10025400F9D1094E094D761B00F096FDB61006D073
:100264000024013455F8043B9847A642F9D170BDE7
:10027400380E0008380E00083C0E0008380E00083E
:10028400054B00221A604FF47A7303FB00F3024A11
:1002940012689342F7D8704750000020034B0022A5
:1002A4001A60024B1B688342FBDB7047500000203E
:1002B40010B5064CA36943F08003A3610220FFF745
:1002C400DFFFA36943F40003A36110BD00000240F3
:1002D40000220CE008494B60074B1B6813F0400FE9
:1002E400FAD005490B6823F040030B600132835CAC
:1002F400002BEFD1704700BF00480040034BD8608B
:10030400024B9B6813F0020FFAD07047005401406F
:10031400034BD860024B9B6813F0020FFAD070476E
:1003240000380040024A936943F0400393617047E8
:10033400001C0240024A936943F4800393617047AE
:10034400001C024008B5FFF7EDFF2820FFF7A6FFC9
:100354004FF49850FFF7DCFF2820FFF79FFFFFF7CB
:10036400E9FFFFF7DFFF2820FFF798FF4FF4A050C5
:10037400FFF7CEFF42F22000FFF7CAFF5020FFF73D
:100384008DFFFFF7D7FF0320FFF77AFFFFF7CAFFC0
:100394002820FFF783FF41F20140FFF7B9FF42F243
:1003A4002000FFF7B5FF5020FFF778FFFFF7C2FFEB
:1003B4000320FFF765FF08BD70B542F20F73984242
:1003C40010D80446012919D0022929D0414C2046CD
:1003D400FFF77EFF404B1868FFF77AFF2046FFF7D0
:1003E40077FF1CE03B4C2046FFF772FF3B4B18683D
:1003F400FFF76EFF2046FFF76BFF10E0FFF792FF59
:100404002820FFF74BFF4FF4A050FFF781FFA0B265
:10041400FFF77EFF5020FFF741FFFFF78BFF70BD12
:10042400FFF780FF2820FFF739FF4FF4A050FFF7B4
:100434006FFF2B4880FB0430E517C5EBA01000F1DB
:100444003002284981FB0431C5EB6111264E86FB3D
:100454000130CB17C3EBA00303EB8303A1EB4303EE
:1004640003F1300000B240EA022080B2FFF750FFEF
:100474005020FFF713FFFFF75DFF0320FFF700FF96
:10048400FFF750FF2820FFF709FF41F20140FFF773
:100494003FFF86FB0430C5EBA00586FB0536E81755
:1004A400C0EBA60000EB8000A5EB400000F1300695
:1004B40005EB8505A4EB4500303000B240EA062088
:1004C40080B2FFF725FF5020FFF7E8FEFFF732FF69
:1004D400A5E700BFFC0D0008180000201C00002048
:1004E400D34D62101F85EB516766666608B5124AE4
:1004F400136801331360114B1A6801321A601A68C9
:100504000F4981FB0231D317C3EBE12341F2883158
:1005140001FB13234BB90B4B1B6913F4006F04D17C
:10052400094B1B6813F0400F00D108BD4FF6FF7054
:10053400FFF7E4FEF9E700BF500000204C00002064
:10054400AD8BDB68001802400054014000290ADB2F
:1005540010B5044609B9012010BD0139FFF7F6FFB3
:1005640004FB00F0F8E7002070470000D8B1024611
:10057400002812DB0021C2B1174880FB0230D317D8
:10058400C3EBA003184603EB8303A2EB430330330E
:10059400124A535402460131EDE742420F4B2D21DA
:1005A40019700121E7E70E4870470C4B002058549E
:1005B4004B1E9A420DDA10B40849885CCC5C8C540A
:1005C400C8540132013B9A42F6DB04485DF8044BFF
:1005D40070470248704700BF676666665400002093
:1005E400000E0008031E04DB0020092B04DC01209C
:1005F40070475B420120F8E710B5441C044880FBB7
:100604000320DB17C3EBA000FFF7ECFF204410BD71
:1006140067666666414B1B6813F0200F7DD030B5CA
:1006240083B03E4B5B68DBB23A2B1ED8302B2DD205
:100634000D2B2FD13A4B1B88002B2BD03948FFF7B9
:1006440047FE394B1B88002B40D0384A136823F0EF
:10065400400313600023364A1360334A1088354937
:10066400088013802E4A138014E07F2B12D1324865
:10067400FFF72EFE2A4B1B8863B1012B46D12A4A71
:1006840000211180013B264A138003E0244A12888A
:10069400032A06D9214A136823F02003136003B008
:1006A40030BD01321E490A808DF8043000228DF8D5
:1006B40005201D490A8802EB8202520092B21344BB
:1006C400303B0B8001A8FFF703FEE3E7174A1368EA
:1006D40043F040031360BDE71848FFF7F9FD013408
:1006E400114B1D882846FFF77DFF0D4B1B881B1AF5
:1006F400A342F1DC1248A0FB0530C0080A4B188065
:1007040030B9074A1388013B1380C3E70024E7E7A5
:10071400FFF72CFFFFF7DCFDF3E7704700480040CC
:100724004A000020FC0D000848000020005401404D
:100734004C00002014000020040E0008000E0008E5
:10074400CDCCCCCC274B1A6C42F480221A641A6BA1
:1007540042F002021A63A3F550531A6822F44002CD
:100764001A601A6842F400021A601A6822F44012ED
:100774001A601A6842F400121A609A6822F470022D
:100784009A609A6842F420029A605A6A22F47F427C
:100794005A625A6A42F4E0625A625A6A42F4E04285
:1007A4005A62A3F5DE3300229A609A6842F4C0725A
:1007B4009A609A6842F008029A60DA6842F020026D
:1007C400DA60094A80215160DA6842F00802DA608E
:1007D400DA6842F00402DA60DA6842F40052DA605D
:1007E400704700BF0038024000E100E0404B1A6C43
:1007F40042F480421A641A6B42F002021A631A6BC2
:1008040042F008021A633B4A136823F04043136022
:10081400136843F000431360374B196821F0C0019B
:100824001960196841F080011960516A21F0704122
:100834005162516A41F0A04151621A6A22F4704235
:100844001A621A6A42F4A0421A62A3F5EA331A68D9
:1008540022F038021A601A6842F008021A601A6814
:1008640042F010021A601A6842F020021A601A68F4
:1008740022F002021A601A6822F001021A601A6851
:1008840022F400421A601A6822F480621A601A681C
:1008940022F080021A601A6822F400521A601A6860
:1008A40022F480521A601A6822F400721A601A68DC
:1008B40042F400721A601A6822F480721A601A688C
:1008C40042F480721A601A6822F004021A601A68EC
:1008D40042F004021A601A6822F400621A601A686C
:1008E40042F400621A601A6842F040021A607047CB
:1008F4000038024000040240000C02403E4B5A6C97
:1009040042F400125A641A6B42F040021A63A3F5CF
:1009140000531A6822F040521A601A6842F00052DA
:100924001A601A6822F040621A601A6842F0006283
:100934001A605A6A22F070625A625A6A42F0A062DD
:100944005A625A6A22F470025A625A6A42F4A00243
:100954005A62A3F544431A6822F038021A601A68EE
:1009640042F008021A601A6842F010021A601A680B
:1009740042F020021A601A6822F002021A601A6811
:1009840022F001021A601A6822F400421A601A68FE
:1009940022F480621A601A6822F080021A601A68CF
:1009A40022F400521A601A6822F480521A601A68FB
:1009B40022F400721A601A6842F400721A601A680B
:1009C40022F480721A601A6842F480721A601A68FB
:1009D40022F004021A601A6842F004021A601A68CB
:1009E40022F400621A601A6842F400621A601A68FB
:1009F40042F040021A6070470038024010B5074CBC
:100A0400A36943F08063A3614FF49670FFF746FC3B
:100A1400A36943F48063A36110BD00BF00180240C2
:100A240008B5FFF7EBFF08BD08B54B1E9BB2032BBF
:100A34000DD80139074B33F81130184340F4E06006
:100A440040F00100FFF764FCFFF7EAFF08BDFFF781
:100A54002FFCFBE72000002010B5254B1B8842F239
:100A64000F72934213D8234A1168234A91420CDD32
:100A74005BB1204A00211160012B0BD0013B98B2DD
:100A84001B4B18800121FFF797FC00242DE0FFF792
:100A94000FFC2CE0013B98B2154B18800121FFF7A5
:100AA4008BFC164A136843F040031360EDE72146BC
:100AB4000A20FFF74BFD0E4B1B8893FBF0F0104A06
:100AC40082FB0032C317C3EBA20303EB8303A0EB47
:100AD4004303C4F1040189B20A4A32F81300FFF750
:100AE400A3FF0320FFF7CCFB0134032CDFDD10BD93
:100AF400140000204C0000203F420F00005401402D
:100B0400676666660000002008B500F077F8FFF716
:100B140019FEFFF76BFEFFF7F1FE2C4A136823F072
:100B2400400313602A4B1A6B42F001021A632949ED
:100B34000A6842F480420A601A6B42F080021A6327
:100B4400254A116821F440511160116841F4805123
:100B540011601A6B42F040021A63A3F500531A683D
:100B640022F440121A601A6842F480121A609A69D8
:100B740042F080629A61194B1B68DB08184AA2FB99
:100B840003239B0A013BB3F1807F09D2154A5360CA
:100B9400154BF02183F8231000239360072313607F
:100BA4001248FFF795FB1248FFF792FB114C42F2F3
:100BB4000F732380FFF7C6FB01212088FFF7FCFB9E
:100BC4000D4B00221A60FFF747FFFCE70054014079
:100BD4000038024000000240001C024028000020AF
:100BE400B1DB971710E000E000ED00E00C0E000808
:100BF400140E0008140000204C000020364B1A6824
:100C040022F00F021A601A6842F005021A601A688C
:100C140042F400721A601A6842F480621A601A6818
:100C240042F480721A602D4A136843F480331360CF
:100C34002A4B1B6813F4003FFAD0284B1A6822F0A1
:100C4400F8021A601A6842F080021A601A6842F0C8
:100C540001021A60214B1B6813F0020FFAD01F4BDC
:100C640059681F4A0A405A6059681E4A0A435A6022
:100C74005A6822F0E0425A601A6842F080721A60A0
:100C8400164B1B6813F0007FFAD0144B9A6822F0BD
:100C9400F0029A609A689A609A6822F4E0529A6024
:100CA4009A6842F4A0529A609A6822F460429A6068
:100CB4009A6842F400429A609A6822F003029A60A9
:100CC4009A6842F002029A60044B9B6803F00C039A
:100CD400082BF9D1704700BF003C024000380240A5
:100CE4000080BFFF085A40000F49D1F8883043F410
:100CF4007003C1F888300D4B1A6842F001021A6083
:100D0400002098601A6822F0847222F480321A60FB
:100D1400074A5A601A6822F480221A60D8604FF099
:100D240000638B60704700BF00ED00E000380240B4
:100D340010300024DFF834D0002103E00C4B5B5862
:100D4400435004310B480C4B42189A42F6D30B4AD9
:100D540002E0002342F8043B094B9A42F9D3FFF71F
:100D6400C3FFFFF769FAFFF7CFFE704700000520C5
:100D7400400E0008000000202C0000202C00002061
:100D840060000020FEE70000F8B500BFF8BC08BC16
:100D94009E467047F8B500BFF8BC08BC9E46704735
:100DA4004552524F523A2056616C75652073686FF4
:100DB400756C642076617279206265747765656EFE
:100DC400203020616E6420393939390A0D00000061
:100DD4004552524F523A20496E76616C6964206DD7
:100DE400656D6F7279206F7574707574206D6F64A2
:100DF400650A0D00000000000A0D0000300000002C
:100E04000D202020200D00000A0D0A0D0000000016
:100E1400456E7465722076616C756520746F2073FD
:100E2400656E64206F6E20646973706C61793A0A30
:040E34000D000000AD
:040E38001D0200088F
:040E3C00F5010008B4
:100E400098588040889888D090C018D018D888408A
:100E500098D898D00F270000D40D0008A40D0008E2
:0C0E600004002000400002000024F40008
:0400000508000D39A9
:00000001FF
