:020000040800F2
:1000000000000520A90A0008F90A0008F90A0008FA
:10001000F90A0008F90A0008F90A000800000000BF
:10002000000000000000000000000000F90A0008C5
:10003000F90A000800000000F90A00089902000807
:10004000F90A0008F90A0008F90A0008F90A000884
:10005000F90A0008F90A0008F90A0008F90A000874
:10006000F90A0008F90A0008F90A0008F90A000864
:10007000F90A0008F90A0008F90A0008F90A000854
:10008000F90A0008F90A0008F90A0008F90A000844
:10009000F90A0008F90A0008F90A0008F90A000834
:1000A000F90A0008F90A0008F90A0008F90A000824
:1000B000F90A0008F90A0008F90A0008F90A000814
:1000C000F90A0008F90A0008F90A0008F90A000804
:1000D000F90A0008F90A0008F90A0008F90A0008F4
:1000E000F90A0008F90A0008F90A0008F90A0008E4
:1000F000F90A0008F90A0008F90A0008F90A0008D4
:10010000F90A0008F90A0008F90A0008F90A0008C3
:10011000F90A0008F90A0008F90A0008F90A0008B3
:10012000F90A0008F90A0008F90A0008F90A0008A3
:10013000F90A0008F90A0008F90A0008F90A000893
:10014000F90A0008F90A0008F90A0008F90A000883
:10015000F90A0008F90A0008F90A0008F90A000873
:10016000F90A0008F90A0008F90A0008F90A000863
:10017000F90A0008F90A0008F90A0008000000005E
:10018000F90A0008F90A0008F90A0008F90A000843
:10019000F90A0008F90A0008F90A0008F90A000833
:1001A000F90A0008F90A0008F90A0008F90A000823
:0401B000F90A000840
:1001B4000348044B834202D0034B03B118477047F2
:1001C4001C0000201C000020000000000548064917
:1001D4000B1AD90F01EBA301491002D0034B03B151
:1001E400184770471C0000201C000020000000007D
:1001F40010B5064C237843B9FFF7DAFF044B13B16B
:100204000448AFF300800123237010BD1C000020BC
:1002140000000000FC0A000808B5044B1BB10449A7
:100224000448AFF30080BDE80840CFE700000000B9
:1002340020000020FC0A000870B50D4E0D4D761B01
:10024400B61006D00024013455F8043B9847A64262
:10025400F9D1094E094D761B00F04EFCB61006D0BC
:100264000024013455F8043B9847A642F9D170BDE7
:100274001C0C00081C0C0008200C00081C0C0008B6
:10028400034B00221A60024B1B688342FBDB70475E
:1002940038000020024A136801331360704700BF1E
:1002A4003800002000220CE008494B60074B1B6813
:1002B40013F0400FFAD005490B6823F040030B609C
:1002C4000132835C002BEFD1704700BF0014014062
:1002D400264B5A6C42F020025A641A6B42F04002D8
:1002E4001A63A3F500531A6822F040521A601A6880
:1002F40042F000521A601A6822F440221A601A6806
:1003040042F000521A609A6822F0405222F44022CD
:100314009A609A6842F0005242F400229A605A6A43
:1003240022F0706222F0F0025A625A6A42F08002AD
:100334005A625A6A42F000625A62A3F5823300227A
:100344009A609A6842F440729A609A6842F00D0288
:100354009A60DA6842F00802DA60DA6842F004026D
:10036400DA60DA6842F40052DA607047003802401A
:10037400044B1A6822F440321A601A6842F480323C
:100384001A60704700040240044B1A6822F44022A9
:100394001A601A6842F480221A607047000402400E
:1003A400024A136823F44023136070470004024098
:1003B400024A936943F480739361704700040240D6
:1003C400024A936943F080739361704700040240CA
:1003D400024A936943F40073936170470004024036
:1003E400024A936943F0007393617047000402402A
:1003F400014600231846CA5C12B101300133FAE702
:1004040070470000D8B10246002812DB0021C2B1B7
:10041400174880FB0230D317C3EBA003184603EB45
:100424008303A2EB43033033124A5354024601318F
:10043400EDE742420F4B2D2119700121E7E70E48E9
:1004440070470C4B002058544B1E9A420DDA10B4DE
:100454000849885CCC5C8C54C8540132013B9A42F4
:10046400F6DB04485DF8044B70470248704700BF50
:10047400676666663C080020F80B000810B5FFF7B5
:10048400A7FFFFF795FF074C2068FFF7F9FEFFF77A
:10049400A7FF2068FFF7F4FEFFF792FF2068FFF73D
:1004A400EFFE10BD0000002010B5FFF781FF054CE2
:1004B4002068FFF7E5FEFFF78BFF2068FFF7E0FEFB
:1004C40010BD00BF0000002010B580B1FFF780FF11
:1004D400084C2068FFF7D4FEFFF76AFF2068FFF797
:1004E400CFFEFFF76DFF2068FFF7CAFE10BDFFF7D0
:1004F40077FFEDE70000002038B50546072406E045
:1005040045FA04F000F00100FFF7DEFF013C002C87
:10051400F6DA024B1868FFF7B3FE38BD000000207E
:1005240038B5FFF745FF084D2868FFF7A9FE074BCC
:100534001869C0F34020C4B2FFF742FF2868FFF7F0
:100544009FFE204638BD00BF00000020000402408A
:1005540038B50725002400E0013D002D08DB6400C8
:10056400E4B2FFF7DDFF0028F6D00134E4B2F3E78C
:10057400024B1868FFF784FE204638BD00000020B7
:1005840010B5B0F5006F2FD20446FFF777FF200AAD
:10059400400000F00E0040F0A000FFF7ADFF002087
:1005A400FFF792FFE0B2FFF7A7FF0020FFF78CFFF1
:1005B400FF20FFF7A1FF0020FFF786FFFFF75EFF94
:1005C400A120FFF799FF0020FFF77EFFFFF7E8FE69
:1005D400FFF7BEFF0446FFF7D7FE0120FFF774FFC5
:1005E400FFF762FF204610BD024B1868FFF75AFE62
:1005F4000024F7E71000002038B5B0F5006F1DD2D5
:1006040004460D46FFF73AFF200A400000F00E00B2
:1006140040F0A000FFF770FF0020FFF755FFE0B2A5
:10062400FFF76AFF0020FFF74FFF2846FFF764FF3C
:100634000020FFF749FFFFF737FF38BD024B18686A
:10064400FFF730FEF9E700BF1000002070B5B0F5E9
:10065400006F0BD204460D460646C0F500638B427C
:1006640011DA0B4B1868FFF71DFE0FE0094B1868F1
:10067400FFF718FE0AE00020FFF782FFAA21A0B2CC
:10068400FFF7BAFF01347319A342F4DC70BD00BF55
:10069400040000201000002070B5B0F5006F0AD2ED
:1006A40006460D460846FFF7A3FEC6F500639842CA
:1006B40006DC002412E00C4B1868FFF7F3FD12E08F
:1006C4000A4B1868FFF7EEFD0DE00020FFF758FF16
:1006D4003019295D80B2FFF78FFF01342846FFF7F8
:1006E40087FEA042F1DC70BD100000200C00002049
:1006F40038B5B0F5006F2DD204460D46C0F5006341
:100704008B422DDB0020FFF73BFFFFF73DFEFFF799
:10071400B5FE200A400000F00E0040F0A000FFF7F4
:10072400EBFE0020FFF7D0FE0020FFF7E5FE0020DF
:10073400FFF7CAFEFF20FFF7DFFE0020FFF7C4FE2D
:10074400FFF79CFEA120FFF7D7FE0020FFF7BCFEB9
:1007540000240FE0124B1868FFF7A4FD00201DE0F1
:10076400104B1868FFF79EFD002017E00120FFF7EB
:10077400ABFE0134AC420EDAFFF712FEFFF7E8FEDF
:10078400094B1855FFF700FE6B1EA342EED0002064
:10079400FFF79AFEEDE7FFF787FE034838BD00BF79
:1007A40010000020080000203C000020F0B583B0B9
:1007B40004464FF400610020FFF79AFF022C53D047
:1007C400032C71D0012C32D03A4C2046FFF76AFD3D
:1007D400394B1868FFF766FD2046FFF763FD2BE0F1
:1007E40045FA04F303F0010330338DF80430002399
:1007F4008DF8053001A8FFF755FD013C002CEFDA18
:100804002E48FFF74FFD01360F2E08DC2C48FFF76A
:1008140049FD06EB07132B4AD55C0724EEE7254870
:10082400FFF740FD01377F2F03DC0026ECE70027AC
:10083400F9E72048FFF736FD03B0F0BD1D48FFF788
:1008440031FD01357F2D11DC00240F2CF6DC04EB87
:1008540005131C4AD05CFFF7D5FDFFF723FD1748AD
:10086400FFF720FD0134F0E70025EBE71148FFF71F
:1008740019FDE1E70F48FFF715FD01357F2D15DC64
:1008840000240F2CF6DC04EB05130E4AD35C8DF820
:10089400043000238DF8053001A8FFF703FD074855
:1008A400FFF700FD0134ECE70025E7E70148FFF717
:1008B400F9FCC1E7040C000814000020000C000837
:1008C400FC0B00083C00002008B500F04FF8FFF7CF
:1008D400FFFC1E4B1B68DB081D4AA2FB03239B0A7B
:1008E400013BB3F1807F09D21A4A53601A4BF021BD
:1008F40083F823100023936007231360174A136BB4
:1009040043F002031363FFF733FDFFF73DFD144883
:10091400FFF7C8FCFFF74CFDFFF75AFD114B1868B1
:10092400FFF7AEFC0A21D020FFF790FE0E49D0203D
:10093400FFF7B2FE0320FFF739FF0220FFF736FF6F
:100944000120FFF733FF002008BD00BF180000207E
:10095400B1DB971710E000E000ED00E00038024042
:10096400080C000800000020100C0008364B1A6820
:1009740022F00F021A601A6842F005021A601A681F
:1009840042F400721A601A6842F480621A601A68AB
:1009940042F480721A602D4A136843F48033136062
:1009A4002A4B1B6813F4003FFAD0284B1A6822F034
:1009B400F8021A601A6842F080021A601A6842F05B
:1009C40001021A60214B1B6813F0020FFAD01F4B6F
:1009D40059681F4A0A405A6059681E4A0A435A60B5
:1009E4005A6822F0E0425A601A6842F080721A6033
:1009F400164B1B6813F0007FFAD0144B9A6822F050
:100A0400F0029A609A689A609A6822F4E0529A60B6
:100A14009A6842F4A0529A609A6822F460429A60FA
:100A24009A6842F400429A609A6822F003029A603B
:100A34009A6842F002029A60044B9B6803F00C032C
:100A4400082BF9D1704700BF003C02400038024037
:100A54000080BFFF085A40000F49D1F8883043F4A2
:100A64007003C1F888300D4B1A6842F001021A6015
:100A7400002098601A6822F0847222F480321A608E
:100A8400074A5A601A6822F480221A60D8604FF02C
:100A940000638B60704700BF00ED00E00038024047
:100AA40010300024DFF834D0002103E00C4B5B58F5
:100AB400435004310B480C4B42189A42F6D30B4A6C
:100AC40002E0002342F8043B094B9A42F9D3FFF7B2
:100AD400C3FFFFF7B1FBFFF7F7FE704700000520E7
:100AE400240C0008000000201C0000201C00002032
:100AF40048080020FEE70000F8B500BFF8BC08BCB9
:100B04009E467047F8B500BFF8BC08BC9E467047C7
:100B14004552524F523A204572617365206C656E9E
:100B240067746820676F6573206265796F6E6420EF
:100B34006D656D6F72792073697A650A0D00000026
:100B44004552524F523A2052656164206C656E677B
:100B5400746820676F6573206265796F6E64206DB9
:100B6400656D6F72792073697A650A0D0000000063
:100B74004552524F523A20537472696E6720676F20
:100B84006573206265796F6E64206D656D6F72792F
:100B94002073697A650A0D00000000004552524F27
:100BA400523A2041646472657373206D75737420C6
:100BB40076617279206265747765656E2030206194
:100BC4006E6420323034370A0D0000004552524F13
:100BD400523A20496E76616C6964206D656D6F725E
:100BE40079206F7574707574206D6F64650A0D00DB
:100BF400000000003000000030620000200000000F
:100C04000A0D00000A0D0A0D00000000505249446C
:080C1400594241494C4F000018
:040C1C001D020008AD
:040C2000F5010008D2
:100C240019000000140B0008440B0008740B0008A2
:0C0C3400A00B0008D00B00080024F40006
:0400000508000AA93C
:00000001FF
