:020000040800F2
:1000000000000520FD0400084D0500084D0500080E
:100010004D0500084D0500084D05000800000000D2
:100020000000000000000000000000004D05000876
:100030004D050008000000004D0500089902000869
:100040004D0500084D0500084D0500084D05000848
:100050004D0500084D0500084D0500084D05000838
:100060004D0500084D0500084D0500084D05000828
:100070004D0500084D0500084D0500084D05000818
:100080004D0500084D0500084D0500084D05000808
:100090004D0500084D0500084D0500084D050008F8
:1000A0004D0500084D0500084D0500084D050008E8
:1000B0004D0500084D0500084D0500084D050008D8
:1000C0004D0500084D0500084D0500084D050008C8
:1000D0004D0500084D0500084D0500084D050008B8
:1000E0004D0500084D0500084D0500084D050008A8
:1000F0004D0500084D0500084D0500084D05000898
:100100004D0500084D0500084D0500084D05000887
:100110004D0500084D0500084D0500084D05000877
:100120004D0500084D0500084D0500084D05000867
:100130004D0500084D0500084D0500084D05000857
:100140004D0500084D0500084D0500084D05000847
:100150004D0500084D0500084D0500084D05000837
:100160004D0500084D0500084D0500084D05000827
:100170004D0500084D0500084D0500080000000071
:100180004D0500084D0500084D0500084D05000807
:100190004D0500084D0500084D0500084D050008F7
:1001A0004D0500084D0500084D0500084D050008E7
:0401B0004D050008F1
:1001B4000348044B834202D0034B03B118477047F2
:1001C40038000020380000200000000005480649DF
:1001D4000B1AD90F01EBA301491002D0034B03B151
:1001E4001847704738000020380000200000000045
:1001F40010B5064C237843B9FFF7DAFF044B13B16B
:100204000448AFF300800123237010BD38000020A0
:10021400000000005005000808B5044B1BB1044958
:100224000448AFF30080BDE80840CFE700000000B9
:100234003C0000205005000870B50D4E0D4D761B96
:10024400B61006D00024013455F8043B9847A64262
:10025400F9D1094E094D761B00F078F9B61006D095
:100264000024013455F8043B9847A642F9D170BDE7
:1002740068050008680500086C05000868050008A2
:10028400034B00221A60024B1B688342FBDB70475E
:1002940054000020024A136801331360704700BF02
:1002A40054000020024A936943F400439361704769
:1002B40000040240024A936943F00043936170478B
:1002C40000040240044B9A6942F400229A619A693C
:1002D40042F008029A617047000C0240044B9A698C
:1002E40042F080629A619A6942F480629A6170472E
:1002F4000018024008B520B1FFF7D4FFFFF7E2FF72
:1003040008BDFFF7D7FFF9E738B505460F24002CE1
:1003140007DB45FA04F000F00100FFF7EBFF013CB6
:10032400F5E738BD08B5FFF7D9FF08BD10B50024BF
:100334000F2C04DC0020FFF7DDFF0134F8E7FFF7A2
:10034400F1FF10BD10B5064CA36943F08003A3610F
:100354000220FFF795FFA36943F40003A36110BDD6
:100364000000024008B54B1E9BB2032B0DD8013987
:10037400074B33F81130074A32F811201843104361
:10038400FFF7C2FFFFF7CEFF08BDFFF7DBFFFBE778
:10039400080000200000002010B500240AE0611CC1
:1003A40089B20C4B33F81400FFF7DCFF0420FFF78D
:1003B40067FF0134032C0CDC074B1B6913F4006F3B
:1003C400EDD0064B33F81400FFF79EFFFFF7AAFFAA
:1003D400ECE710BD100000200018024000000020CF
:1003E40008B52C4B1B682C4AA2FB03239B09013B39
:1003F400B3F1807F09D2294A5360294BF02183F855
:1004040023100023936007231360264B1A6B42F0DA
:1004140001021A631A6B42F002021A631A6B42F069
:1004240008021A631A6B42F040021A63A3F5505390
:100434001A6822F040421A601A6842F080421A6038
:1004440003F5A0531A6822F040621A601A6842F059
:1004540080621A60144A116821F0C00111601168A9
:1004640041F0400111601A6822F440121A601A68BF
:1004740042F480121A60A3F5C0531A6822F4404271
:100484001A601A6842F480421A60FFF74FFFFFF7C0
:1004940083FFFCE734000020D34D621010E000E03D
:1004A40000ED00E000380240000C02400F49D1F892
:1004B400883043F47003C1F888300D4B1A6842F059
:1004C40001021A60002098601A6822F0847222F4F3
:1004D40080321A60074A5A601A6822F480221A602D
:1004E400D8604FF000638B60704700BF00ED00E000
:1004F4000038024010300024DFF834D0002103E03B
:100504000C4B5B58435004310B480C4B42189A4235
:10051400F6D30B4A02E0002342F8043B094B9A420B
:10052400F9D3FFF7C3FFFFF787FEFFF759FF7047C3
:10053400000005207005000800000020380000209D
:100544003800002058000020FEE70000F8B500BF86
:10055400F8BC08BC9E467047F8B500BFF8BC08BCA0
:040564009E467047F8
:040568001D02000868
:04056C00F50100088D
:10057000000200010100000404002000400002000D
:1005800098C810D8181880D818981888185890C883
:1005900010088058101898589888180818D0905843
:0805A00090D088980024F400BB
:04000005080004FDEE
:00000001FF
